{
  "contractName": "VoterRegistry",
  "abi": [
    {
      "inputs": [],
      "name": "totalVoters",
      "outputs": [
        {
          "internalType": "uint256",
          "name": "",
          "type": "uint256"
        }
      ],
      "stateMutability": "view",
      "type": "function",
      "constant": true
    },
    {
      "inputs": [
        {
          "internalType": "uint256",
          "name": "",
          "type": "uint256"
        }
      ],
      "name": "voters",
      "outputs": [
        {
          "internalType": "string",
          "name": "name",
          "type": "string"
        },
        {
          "internalType": "uint256",
          "name": "voterId",
          "type": "uint256"
        },
        {
          "internalType": "uint8",
          "name": "age",
          "type": "uint8"
        },
        {
          "internalType": "string",
          "name": "address_",
          "type": "string"
        },
        {
          "internalType": "string",
          "name": "fatherName",
          "type": "string"
        }
      ],
      "stateMutability": "view",
      "type": "function",
      "constant": true
    },
    {
      "inputs": [
        {
          "internalType": "string",
          "name": "_name",
          "type": "string"
        },
        {
          "internalType": "uint256",
          "name": "_voterId",
          "type": "uint256"
        },
        {
          "internalType": "uint8",
          "name": "_age",
          "type": "uint8"
        },
        {
          "internalType": "string",
          "name": "_address",
          "type": "string"
        },
        {
          "internalType": "string",
          "name": "_fatherName",
          "type": "string"
        }
      ],
      "name": "addVoter",
      "outputs": [],
      "stateMutability": "nonpayable",
      "type": "function"
    },
    {
      "inputs": [
        {
          "internalType": "uint256",
          "name": "_voterId",
          "type": "uint256"
        }
      ],
      "name": "getVoterDetails",
      "outputs": [
        {
          "components": [
            {
              "internalType": "string",
              "name": "name",
              "type": "string"
            },
            {
              "internalType": "uint256",
              "name": "voterId",
              "type": "uint256"
            },
            {
              "internalType": "uint8",
              "name": "age",
              "type": "uint8"
            },
            {
              "internalType": "string",
              "name": "address_",
              "type": "string"
            },
            {
              "internalType": "string",
              "name": "fatherName",
              "type": "string"
            }
          ],
          "internalType": "struct VoterRegistry.Voter",
          "name": "",
          "type": "tuple"
        }
      ],
      "stateMutability": "view",
      "type": "function",
      "constant": true
    }
  ],
  "bytecode": "0x608060405234801561001057600080fd5b50610e45806100206000396000f3fe608060405234801561001057600080fd5b506004361061004c5760003560e01c806357b29829146100515780635f5300ff1461006d5780637b8fe1661461008b578063da58c7d9146100bb575b600080fd5b61006b60048036038101906100669190610907565b6100ef565b005b610075610227565b60405161008291906109e5565b60405180910390f35b6100a560048036038101906100a09190610a00565b61022d565b6040516100b29190610b57565b60405180910390f35b6100d560048036038101906100d09190610a00565b61048e565b6040516100e6959493929190610bd2565b60405180910390f35b60008060008681526020019081526020016000206001015414610147576040517f08c379a000000000000000000000000000000000000000000000000000000000815260040161013e90610cac565b60405180910390fd5b6040518060a001604052808681526020018581526020018460ff16815260200183815260200182815250600080868152602001908152602001600020600082015181600001908051906020019061019f929190610669565b506020820151816001015560408201518160020160006101000a81548160ff021916908360ff16021790555060608201518160030190805190602001906101e7929190610669565b506080820151816004019080519060200190610204929190610669565b509050506001600081548092919061021b90610cfb565b91905055505050505050565b60015481565b6102356106ef565b6000806000848152602001908152602001600020600101540361028d576040517f08c379a000000000000000000000000000000000000000000000000000000000815260040161028490610d8f565b60405180910390fd5b6000808381526020019081526020016000206040518060a00160405290816000820180546102ba90610dde565b80601f01602080910402602001604051908101604052809291908181526020018280546102e690610dde565b80156103335780601f1061030857610100808354040283529160200191610333565b820191906000526020600020905b81548152906001019060200180831161031657829003601f168201915b50505050508152602001600182015481526020016002820160009054906101000a900460ff1660ff1660ff16815260200160038201805461037390610dde565b80601f016020809104026020016040519081016040528092919081815260200182805461039f90610dde565b80156103ec5780601f106103c1576101008083540402835291602001916103ec565b820191906000526020600020905b8154815290600101906020018083116103cf57829003601f168201915b5050505050815260200160048201805461040590610dde565b80601f016020809104026020016040519081016040528092919081815260200182805461043190610dde565b801561047e5780601f106104535761010080835404028352916020019161047e565b820191906000526020600020905b81548152906001019060200180831161046157829003601f168201915b5050505050815250509050919050565b60006020528060005260406000206000915090508060000180546104b190610dde565b80601f01602080910402602001604051908101604052809291908181526020018280546104dd90610dde565b801561052a5780601f106104ff5761010080835404028352916020019161052a565b820191906000526020600020905b81548152906001019060200180831161050d57829003601f168201915b5050505050908060010154908060020160009054906101000a900460ff169080600301805461055890610dde565b80601f016020809104026020016040519081016040528092919081815260200182805461058490610dde565b80156105d15780601f106105a6576101008083540402835291602001916105d1565b820191906000526020600020905b8154815290600101906020018083116105b457829003601f168201915b5050505050908060040180546105e690610dde565b80601f016020809104026020016040519081016040528092919081815260200182805461061290610dde565b801561065f5780601f106106345761010080835404028352916020019161065f565b820191906000526020600020905b81548152906001019060200180831161064257829003601f168201915b5050505050905085565b82805461067590610dde565b90600052602060002090601f01602090048101928261069757600085556106de565b82601f106106b057805160ff19168380011785556106de565b828001600101855582156106de579182015b828111156106dd5782518255916020019190600101906106c2565b5b5090506106eb9190610721565b5090565b6040518060a001604052806060815260200160008152602001600060ff16815260200160608152602001606081525090565b5b8082111561073a576000816000905550600101610722565b5090565b6000604051905090565b600080fd5b600080fd5b600080fd5b600080fd5b6000601f19601f8301169050919050565b7f4e487b7100000000000000000000000000000000000000000000000000000000600052604160045260246000fd5b6107a58261075c565b810181811067ffffffffffffffff821117156107c4576107c361076d565b5b80604052505050565b60006107d761073e565b90506107e3828261079c565b919050565b600067ffffffffffffffff8211156108035761080261076d565b5b61080c8261075c565b9050602081019050919050565b82818337600083830152505050565b600061083b610836846107e8565b6107cd565b90508281526020810184848401111561085757610856610757565b5b610862848285610819565b509392505050565b600082601f83011261087f5761087e610752565b5b813561088f848260208601610828565b91505092915050565b6000819050919050565b6108ab81610898565b81146108b657600080fd5b50565b6000813590506108c8816108a2565b92915050565b600060ff82169050919050565b6108e4816108ce565b81146108ef57600080fd5b50565b600081359050610901816108db565b92915050565b600080600080600060a0868803121561092357610922610748565b5b600086013567ffffffffffffffff8111156109415761094061074d565b5b61094d8882890161086a565b955050602061095e888289016108b9565b945050604061096f888289016108f2565b935050606086013567ffffffffffffffff8111156109905761098f61074d565b5b61099c8882890161086a565b925050608086013567ffffffffffffffff8111156109bd576109bc61074d565b5b6109c98882890161086a565b9150509295509295909350565b6109df81610898565b82525050565b60006020820190506109fa60008301846109d6565b92915050565b600060208284031215610a1657610a15610748565b5b6000610a24848285016108b9565b91505092915050565b600081519050919050565b600082825260208201905092915050565b60005b83811015610a67578082015181840152602081019050610a4c565b83811115610a76576000848401525b50505050565b6000610a8782610a2d565b610a918185610a38565b9350610aa1818560208601610a49565b610aaa8161075c565b840191505092915050565b610abe81610898565b82525050565b610acd816108ce565b82525050565b600060a0830160008301518482036000860152610af08282610a7c565b9150506020830151610b056020860182610ab5565b506040830151610b186040860182610ac4565b5060608301518482036060860152610b308282610a7c565b91505060808301518482036080860152610b4a8282610a7c565b9150508091505092915050565b60006020820190508181036000830152610b718184610ad3565b905092915050565b600082825260208201905092915050565b6000610b9582610a2d565b610b9f8185610b79565b9350610baf818560208601610a49565b610bb88161075c565b840191505092915050565b610bcc816108ce565b82525050565b600060a0820190508181036000830152610bec8188610b8a565b9050610bfb60208301876109d6565b610c086040830186610bc3565b8181036060830152610c1a8185610b8a565b90508181036080830152610c2e8184610b8a565b90509695505050505050565b7f566f7465722077697468207468697320494420616c726561647920657869737460008201527f7300000000000000000000000000000000000000000000000000000000000000602082015250565b6000610c96602183610b79565b9150610ca182610c3a565b604082019050919050565b60006020820190508181036000830152610cc581610c89565b9050919050565b7f4e487b7100000000000000000000000000000000000000000000000000000000600052601160045260246000fd5b6000610d0682610898565b91507fffffffffffffffffffffffffffffffffffffffffffffffffffffffffffffffff8203610d3857610d37610ccc565b5b600182019050919050565b7f566f746572206e6f7420666f756e640000000000000000000000000000000000600082015250565b6000610d79600f83610b79565b9150610d8482610d43565b602082019050919050565b60006020820190508181036000830152610da881610d6c565b9050919050565b7f4e487b7100000000000000000000000000000000000000000000000000000000600052602260045260246000fd5b60006002820490506001821680610df657607f821691505b602082108103610e0957610e08610daf565b5b5091905056fea2646970667358221220d0bf845cee7f193f0270376ac4c01ede41ecb10d534e98902628ddd26a8c36de64736f6c634300080d0033",
  "immutableReferences": {},
  "source": "// SPDX-License-Identifier: MIT\r\npragma solidity ^0.8.0;\r\n\r\ncontract VoterRegistry {\r\n    struct Voter {\r\n        string name;\r\n        uint256 voterId;\r\n        uint8 age;\r\n        string address_;\r\n        string fatherName;\r\n    }\r\n\r\n    mapping(uint256 => Voter) public voters;\r\n    uint256 public totalVoters;\r\n\r\n    function addVoter(\r\n        string memory _name,\r\n        uint256 _voterId,\r\n        uint8 _age,\r\n        string memory _address,\r\n        string memory _fatherName\r\n    ) public {\r\n        require(voters[_voterId].voterId == 0, \"Voter with this ID already exists\");\r\n\r\n        voters[_voterId] = Voter({\r\n            name: _name,\r\n            voterId: _voterId,\r\n            age: _age,\r\n            address_: _address,\r\n            fatherName: _fatherName\r\n        });\r\n\r\n        totalVoters++;\r\n    }\r\n\r\n    function getVoterDetails(uint256 _voterId) public view returns (Voter memory) {\r\n        require(voters[_voterId].voterId != 0, \"Voter not found\");\r\n        return voters[_voterId];\r\n    }\r\n}\r\n",
  "sourcePath": "C:\\Users\\kunal\\OneDrive\\Desktop\\crowdfunding\\voterdetail\\voterinfo\\contracts\\VoterRegistry.sol",
  "compiler": {
    "name": "solc",
    "version": "0.8.13+commit.abaa5c0e.Emscripten.clang"
  },
  "schemaVersion": "3.4.15",
  "updatedAt": "2023-08-05T16:51:56.961Z",
  "networkType": "ethereum",
  "devdoc": {
    "kind": "dev",
    "methods": {},
    "version": 1
  },
  "userdoc": {
    "kind": "user",
    "methods": {},
    "version": 1
  }
}